:10000000CDEF00F00000000000EF00F00000000065
:0A0010000000000000000000F3D71C
:10001C000134083609360450085E0550D8A0053C5A
:10002C00095E003601360F0E0C6E013408360936A7
:10003C00045000A006D0085E0550D8A0053C095E0F
:10004C0005D008260550D8B0053C092600360136E7
:10005C000C2EEBD700B006D0045008260550D8B0B3
:08006C00053C0926000012000A
:100074000450000A08E10550000A05E1FF0E006E75
:100084007F0E016E57D00D6A096A086A015000108C
:10009400D8B4000C015005180A6E0ABE0D1E0B6A76
:1000A40005AE05D0041E051E042AD8B4052A01AEE7
:1000B40005D0001E011E002AD8B4012A01500510E3
:1000C4000A6E0ABE10D0A8DF0BB020D00DAE000C13
:1000D400001E011E002AD8B4012A081E091E082A7F
:1000E400D8B4092A000C05AE0DD001BE07D00150CA
:1000F400096E0050086E016A006AE8D7016A006A56
:10010400002A000C011E001E0B2ADDD7082AD8B4D1
:10011400092A0450085CD8A4D9D70550095CD8A48E
:10012400D5D7096A086A002AD8B4012A01AECED705
:060134000000FF0C1200A8
:10013A000B6A0A6A096A00500402F4CF09F0F3CF85
:10014A0008F001500502F4CF0BF0F3CF0AF000508B
:10015A000502F3500926F4500A22E86A0B220150DC
:10016A000402F3500926F4500A22E86A0B2208C056
:10017A0000F009C001F00AC002F00BC003F012003F
:10018A000900F5CFE6FF0006FBE10106F9E11200DE
:10019A00156A166A926A936A946A956AFF0E966E4F
:1001AA008482896A8A6A8B6A8C6A8D6A84B002D070
:1001BA00D89001D0D88015E3154A162AFF0E896E09
:1001CA0015C000F016C001F00A0E046E000E056E8E
:1001DA00AFDF3A0E046E000E056E47DF00C08CFFDB
:0401EA00E5D7FFD77F
:020000040030CA
:0D000100231F3CFFBF81FF0FC00FE00F4029
:00000001FF
