:100000000EEF00F00000000000EF00F00000000024
:0A0010000000000000000000F3D71C
:10001C00926A936A946A956A966A896A8A6A8B6A02
:10002C008C6A8D6A290E0B6E960E0C6E7F0E0D6E01
:10003C000D2EFED70C2EFCD70B2EFAD70A0E896E7E
:10004C000A0E8A6E0A0E8B6E0A0E8C6E0A0E8D6E5E
:10005C00290E0B6E960E0C6E7F0E0D6E0D2EFED7AE
:0C006C000C2EFCD70B2EFAD7D8D7FFD7EC
:020000040030CA
:0D000100331F3CFFBD81FF0FC00FE00F401B
:00000001FF
